:100000000C942A000C9447000C9447000C94470071
:100010000C9447000C9447000C9447000C94DE0CA1
:100020000C9447000C9447000C9447000C94470034
:100030000C9447000C9465180C948F180C94991824
:100040000C94551A0C9447000C9447000C944700EC
:100050000C94470011241FBECFE5D8E0DEBFCDBF12
:1000600012E0A0E6B0E0E4EDFEE302C005900D92E0
:10007000A033B107D9F715E0A0E3B2E001C01D92AB
:10008000A33BB107E1F70E9498090C94681F0C94F8
:100090000000EF92FF920F931F937B018C0120E0F1
:1000A00030E040E05FE40E94190388238CF0C8012F
:1000B000B70120E030E040E05FE40E94C1010E940F
:1000C000A7039B01AC01205030404040504806C07F
:1000D000C801B7010E94A7039B01AC01B901CA0185
:1000E0001F910F91FF90EF900895A0E0B0E0EBE733
:1000F000F0E00C94281FDC012B01FA019C91923056
:1001000008F439C1EB018881823008F433C194309E
:1001100069F4843009F02FC111969C91119789815F
:10012000981709F428C1A5E0B1E025C1843009F48D
:1001300021C18230A9F4923009F01DC19A01AD01AC
:1001400088E0EA010990AE01E90109929E0181501F
:10015000C1F7E201898111969C918923818308C1AD
:10016000923009F407C112962D903C901397EB0141
:100170008A819B811496AD90BD90CD90DC901797AD
:10018000EC80FD800E811F819101281B390BB90184
:1001900037FF04C066277727621B730B6032710537
:1001A0000CF061C0121613066CF537014801062EDB
:1001B00004C096948794779467940A94D2F721E0C8
:1001C00030E040E050E004C0220F331F441F551FB1
:1001D0006A95D2F721503040404050402E213F21B7
:1001E00040235123211531054105510521F021E01E
:1001F00030E040E050E079018A01E628F72808293C
:1002000019293CC0232BD1F1260E371E350146019A
:10021000062E04C096948794779467940A94D2F734
:1002200021E030E040E050E004C0220F331F441FC3
:10023000551F6A95D2F721503040404050402A2146
:100240003B214C215D21211531054105510521F04E
:1002500021E030E040E050E059016A01A628B728CB
:10026000C828D9280BC0821593052CF01C01AA249C
:10027000BB24650103C0EE24FF24870111969C91E5
:10028000D20111968C91981709F445C0992339F041
:10029000A80197012A193B094C095D0906C0A6016E
:1002A00095012E193F09400B510B57FD08C01182D3
:1002B0003382228224833583468357831DC081E0A5
:1002C00081833382228288279927DC01821B930B4A
:1002D000A40BB50B84839583A683B7830DC0220F2F
:1002E000331F441F551F24833583468357838281E0
:1002F000938101979383828324813581468157813D
:10030000DA01C9010197A109B1098F5F9F4FAF4F72
:10031000BF4328F30BC0918333822282EA0CFB1C7B
:100320000C1D1D1DE482F5820683178383E0808304
:10033000248135814681578157FF1AC0C901AA27F8
:1003400097FDA095BA2F81709070A070B0705695EF
:10035000479537952795822B932BA42BB52B848318
:100360009583A683B7838281938101969383828349
:10037000DF0101C0D201CD01CDB7DEB7E2E10C94BF
:10038000441FA0E2B0E0E7ECF1E00C94341F698375
:100390007A838B839C832D833E834F835887E9E048
:1003A000EE2EF12CEC0EFD1ECE010196B7010E943F
:1003B00098058E010F5E1F4FCE010596B8010E9471
:1003C00098058A8991E089278A8BC701B801AE0117
:1003D000475E5F4F0E9475000E94C304A096E6E04E
:1003E0000C94501FA0E2B0E0E8EFF1E00C94341F51
:1003F00069837A838B839C832D833E834F835887C5
:10040000F9E0EF2EF12CEC0EFD1ECE010196B701A6
:100410000E9498058E010F5E1F4FCE010596B80110
:100420000E949805C701B801AE01475E5F4F0E9468
:1004300075000E94C304A096E6E00C94501FA0E251
:10044000B0E0E5E2F2E00C94281F69837A838B83A5
:100450009C832D833E834F835887CE010196BE0136
:10046000675F7F4F0E949805CE010596BE016F5EC3
:100470007F4F0E9498059985923088F08989823053
:10048000C8F0943019F4823051F404C0843029F457
:10049000923081F485E091E0C6C0923049F420E0CA
:1004A0009A858A89981321E02A87CE010996BBC0D4
:1004B000823049F420E09A858A89981321E02A8BBA
:1004C000CE014196B0C02D843E844F8458886D88FB
:1004D0007E888F88988CEE24FF248701AA24BB2471
:1004E000650140E050E060E070E0E0E0F0E0C10174
:1004F00081709070892BE9F0E60CF71C081D191D1E
:100500009A01AB012A0D3B1D4C1D5D1D80E090E062
:10051000A0E0B0E0E614F7040805190520F481E036
:1005200090E0A0E0B0E0BA01A901480F591F6A1F8E
:100530007B1FAA0CBB1CCC1CDD1C97FE08C081E0F5
:1005400090E0A0E0B0E0A82AB92ACA2ADB2A3196B6
:10055000E032F10549F0660C771C881C991C569412
:10056000479437942794C3CFFA85EA892B893C892D
:100570008B859C85280F391F2E5F3F4F17C0CA01FE
:1005800081709070892B61F016950795F794E79428
:1005900080E090E0A0E0B0E8E82AF92A0A2B1B2BC3
:1005A00076956795579547952F5F3F4F77FDE7CF36
:1005B0000CC0440F551F661F771F17FD4160EE0CDE
:1005C000FF1C001F111F21503040403090E05907A0
:1005D00090E0690790E4790760F32B8F3C8FDB0193
:1005E000CA018F779070A070B07080349105A1051A
:1005F000B10561F447FD0AC0E114F10401051105DC
:1006000029F0405C5F4F6F4F7F4F40781A8EFE1786
:1006100011F081E08A8F4D8F5E8F6F8F78A383E01A
:10062000898FCE0149960E94C304A096E2E10C9402
:10063000441FA8E1B0E0EFE1F3E00C94341F6983BC
:100640007A838B839C832D833E834F83588789E0F5
:10065000E82EF12CEC0EFD1ECE010196B7010E9492
:1006600098058E010F5E1F4FCE010596B8010E94BE
:1006700098058985823040F08989823028F0C70149
:10068000B8010E94100601C08FEF6896E6E00C9456
:10069000501FA8E0B0E0EFE4F3E00C94311F9B01A1
:1006A000AC0183E08983DA01C9018827B7FD83950E
:1006B0009927AA27BB27B82E2115310541055105D9
:1006C00019F482E089833AC08823A9F0203080E0C1
:1006D000380780E0480780E8580729F460E070E0B8
:1006E00080E09FEC30C0EE24FF248701E21AF30A79
:1006F000040B150B02C079018A018EE1C82ED12CA2
:10070000DC82CB82ED82FE820F831887C801B7019D
:100710000E94740401971816190684F4082E04C068
:10072000EE0CFF1C001F111F0A94D2F7ED82FE820F
:100730000F831887C81AD90ADC82CB82BA82CE010D
:1007400001960E94C3042896E9E00C944D1FACE08A
:10075000B0E0EDEAF3E00C94381F69837A838B8371
:100760009C83CE010196BE016B5F7F4F0E9498056E
:100770008D81823061F1823050F1843021F48E819C
:10078000882351F12EC02F81388537FD20C06E811E
:100790002F3131051CF06623F9F023C08EE190E083
:1007A000821B930B29853A854B855C8504C0569541
:1007B0004795379527958A95D2F76623B1F05095DE
:1007C0004095309521953F4F4F4F5F4F0EC020E031
:1007D00030E040E050E009C02FEF3FEF4FEF5FE720
:1007E00004C020E030E040E050E8B901CA012C9696
:1007F000E2E00C94541FA8E0B0E0E1E0F4E00C94D7
:10080000301F7B018C01611571058105910519F47B
:1008100082E0898360C083E089838EE1C82ED12C79
:10082000DC82CB82ED82FE820F831887C801B7017C
:100830000E947404FC013197F7FF3BC02227332745
:100840002E1B3F0B57016801022E04C0D694C7949B
:10085000B794A7940A94D2F740E050E060E070E0CB
:1008600081E090E0A0E0B0E004C0880F991FAA1FCB
:10087000BB1F2A95D2F70197A109B1098E219F21AB
:10088000A023B1230097A105B10521F041E050E07C
:1008900060E070E04A295B296C297D294D835E83E5
:1008A0006F8378878EE190E08E1B9F0B9C838B83F8
:1008B00012C0309781F00E2E04C0EE0CFF1C001FFA
:1008C000111F0A94D2F7ED82FE820F831887CE1A89
:1008D000DF0ADC82CB821A82CE0101960E94C30419
:1008E0002896EAE00C944C1FEF92FF920F931F930F
:1008F0007B018C0180E0E81680E0F80681E00807C3
:1009000080E0180788F48FEFE816F104010511055F
:1009100031F028F088E090E0A0E0B0E017C080E07F
:1009200090E0A0E0B0E012C080E0E81680E0F806B9
:1009300080E0080781E0180728F088E190E0A0E057
:10094000B0E004C080E190E0A0E0B0E020E230E060
:1009500040E050E0281B390B4A0B5B0B04C0169596
:100960000795F794E7948A95D2F7F701E35FFE4F76
:100970008081281B310941095109C9011F910F913B
:10098000FF90EF900895DF92EF92FF920F931F93E5
:10099000FC01E480F58006811781D180808182305E
:1009A00048F480E090E0A0E1B0E0E82AF92A0A2BC0
:1009B0001B2BA5C0843009F49FC0823021F4EE24A3
:1009C000FF24870105C0E114F1040105110519F4A4
:1009D000E0E0F0E096C0628173819FEF62387907B2
:1009E0000CF05BC022E83FEF261B370B2A313105A4
:1009F0002CF020E030E040E050E02AC0B801A70130
:100A0000022E04C076956795579547950A94D2F7BC
:100A100081E090E0A0E0B0E004C0880F991FAA1F19
:100A2000BB1F2A95D2F70197A109B1098E219F21F9
:100A3000A023B1230097A105B10521F081E090E04A
:100A4000A0E0B0E09A01AB01282B392B4A2B5B2B9D
:100A5000DA01C9018F779070A070B0708034910571
:100A6000A105B10539F427FF09C0205C3F4F4F4F66
:100A70005F4F04C0215C3F4F4F4F5F4FE0E0F0E01D
:100A80002030A0E03A07A0E04A07A0E45A0710F09F
:100A9000E1E0F0E079018A0127C06038710564F572
:100AA000FB01E158FF4FD801C7018F779070A0700C
:100AB000B07080349105A105B10539F4E7FE0DC091
:100AC00080E490E0A0E0B0E004C08FE390E0A0E01C
:100AD000B0E0E80EF91E0A1F1B1F17FF05C0169590
:100AE0000795F794E794319687E016950795F79464
:100AF000E7948A95D1F705C0EE24FF248701EFEF34
:100B0000F0E06E2F679566276795902F9F77D794B3
:100B1000DD24D7948E2F8695492F462B582F5D299B
:100B2000B701CA011F910F91FF90EF90DF900895D8
:100B3000FC01DB01408151812281622F6F7770E0DF
:100B4000221F2227221F9381892F880F822B282F73
:100B500030E0991F9927991F11969C9311972115A1
:100B60003105A9F5411551056105710511F482E0C2
:100B700037C082E89FEF13969C938E9312979A0149
:100B8000AB0167E0220F331F441F551F6A95D1F751
:100B900083E08C930DC0220F331F441F551F129604
:100BA0008D919C911397019713969C938E93129716
:100BB000203080E0380780E0480780E4580758F389
:100BC00014962D933D934D935C93179708952F3F63
:100BD000310579F4411551056105710519F484E079
:100BE0008C93089564FF03C081E08C9312C01C9223
:100BF00010C02F57304013963C932E93129783E0EA
:100C00008C9387E0440F551F661F771F8A95D1F795
:100C1000706414964D935D936D937C93179708952C
:100C20001F93DC01FB019C91923008F447C0808146
:100C3000823008F443C0943051F411961C918430F2
:100C400099F58181682F70E0611B71093FC0843084
:100C500021F0923031F48230B9F18181882389F119
:100C60002DC011961C9111978230F1F081811817D7
:100C7000D9F412962D913C9113978281938182171A
:100C8000930794F028173907BCF014968D919D9125
:100C90000D90BC91A02D2481358146815781281764
:100CA00039074A075B0718F4112341F00AC082177D
:100CB0009307A407B50740F4112319F061E070E031
:100CC00005C06FEF7FEF02C060E070E0CB011F91C5
:100CD00008950F931F9381E062E041E00E94EA18BB
:100CE00081E062E00E947D1983E062E00E947D194C
:100CF0008BE490E00E94B81683E062E00E949119B4
:100D00008091B1059091B20560E070E00E94A90960
:100D100081FF05C089E190E00E94B816E5CF81E02F
:100D200062E00E94A6198091B1059091B20562E03F
:100D300070E040E020E00FEF1FEF0E94340A81E0F6
:100D400062E00E94A619D0CFEF92FF920F9383E04A
:100D500062E041E00E94EA1883E062E00E9491199B
:100D600089E696E060E670E045E550E020E030E09E
:100D700001E0EE24FF240E9412170F91FF90EF90E4
:100D800008951F93162F813041F0813018F0823082
:100D9000D1F40EC080E062E002C080E068E00E9412
:100DA000271C612F70E080E090E00E94EF1C0BC0D8
:100DB00080E06FE00E94271C113011F485E401C02F
:100DC00084E40E94E91C1F9108958130C9F18130AB
:100DD00008F1823009F044C080E060E00E94271CE6
:100DE00086E690E00E94D01D81E060E00E94271C12
:100DF00087E790E00E94D01D80E06091B0050E94DE
:100E0000C10681E060910D020E94C10682E06091FE
:100E10000E0213C080E060E00E94271C88E890E08A
:100E20000E94D01D81E060E00E94271C89E990E0CB
:100E30000E94D01D81E060910D020E94C1060895BC
:100E400080E060E00E94271C8AEA90E00E94D01DAA
:100E500081E060E00E94271C8BEB90E00E94D01D97
:100E60000895CF92DF92EF92FF920F931F9310910C
:100E7000B00500910D02C0900E0281E061E041E0FA
:100E80000E94EA1881E061E00E947D1981E061E042
:100E90000E94A6198091B1059091B2050E94B909EE
:100EA0008770823089F0843089F0813021F580E0CC
:100EB0000E94E506E0900D020E1521F081E06E2DF6
:100EC0000E94C106D12E2CC081E026C082E00E9483
:100ED000E506D090B0051D1521F080E06D2D0E9433
:100EE000C106F0900E02CF1421F082E06F2D0E9417
:100EF000C106E02E16C08091B1059091B2056FEF4A
:100F000070E00E94A9098091B1059091B20564E05A
:100F100070E00E94D80982E00E94E506D12EE02E02
:100F2000FC2C81E061E00E94A6198091B1059091AE
:100F3000B20568ED70E041E020E00FEF1FEF0E9486
:100F4000340A1D2D0E2DCF2CA1CFEF92FF920F93BF
:100F50000E94351C82E00E94E50681E397E06CEC7C
:100F600070E044E650E020E030E002E0EE24FF24B0
:100F70000E9412170F91FF90EF900895AF92BF92C9
:100F8000DF92EF92FF920F931F93DF93CF9300D0E6
:100F9000CDB7DEB781E060E041E00E94EA1881E071
:100FA00060E00E947D195E010894A11CB11C81E0E3
:100FB00060E00E94A619C5010E94461A09811A81A3
:100FC0008091B1059091B2050E94B9098770813076
:100FD00009F44FC0B80180E090E00E94FB0320E0DC
:100FE00030E04AEF5EE30E941F020E9449007B014D
:100FF0008C01D62E80910D02E816E8F080910E0249
:101000008130C9F48091B1059091B20564E070E03F
:101010000E94A9098091B1059091B20562E070E04B
:101020000E94D809E092B0058091B1059091B20577
:1010300060E870E01CC08091B005D816D1F08091B6
:10104000B1059091B20562E070E00E94A90980911B
:10105000B1059091B20564E070E00E94D809D09289
:10106000B0058091B1059091B20568E070E00E94F2
:10107000D80981E060E00E94A61984E690E00E9411
:10108000B81695CFEF92FF920F93DF93CF9300D0D6
:10109000CDB7DEB70E94121A80E689838A81807EEE
:1010A0008A83CE0101960E94171A8091B105909112
:1010B000B2056FEF70E00E94A9098091B10590918F
:1010C000B20564E070E00E94D8098EEB97E065ED10
:1010D00070E046E950E020E030E003E0EE24FF2439
:1010E0000E9412170F900F90CF91DF910F91FF90F8
:1010F000EF900895DC01FB0190818C91980F9C93F7
:101100008081981B90838C91891B8C930895809388
:1011100031020E94401881E0809330020895DF92EE
:10112000EF92FF920F931F9381E063E041E00E94F2
:10113000EA1881E063E00E947D1910E0FF249AE044
:10114000D92E84E6E82E81E063E00E94A619009182
:101150003002013009F0C5C08091B1059091B2050F
:101160000E94B9098770823009F469C0843009F49B
:1011700081C0813009F0B3C090913102892F805332
:101180008A30D8F51130B1F0113020F0123009F06A
:10119000A6C023C09E9DC0011124805C80930D02D7
:1011A0008091B1059091B20560E170E00E94D8098C
:1011B00011E095C020910D02205E9D9DC00111247B
:1011C000280F20930D028091B1059091B20560E146
:1011D00070E00E94D80912E082C080910D02980F41
:1011E000905390930D028091B1059091B20560E10A
:1011F00070E00E94D80910E072C09F3429F0933447
:1012000009F06DC0F0920D028091B1059091B20588
:1012100061E070E00E94A9098091B1059091B2054A
:1012200064E070E00E94D8098091B1059091B20508
:1012300060E870E00E94D80910E0FF2450C080915F
:101240003102833509F04BC08091B1059091B20510
:1012500062E070E00E94A9098091B1059091B20509
:1012600064E070E00E94D80980910E02802780938C
:101270000E0221C080913102833419F0843579F552
:1012800021C080910D029F2D980F292F281B20939C
:101290000D02F92EF21A8091B1059091B20564E029
:1012A00070E00E94A9098091B1059091B20561E0BA
:1012B00070E00E94D8098091B1059091B20560E874
:1012C00070E00BC080910E02802780930E02809107
:1012D000B1059091B20560E470E00E94D8091092C7
:1012E000300281E063E00E94A61982E390E00E9450
:1012F000B81629CFEF92FF920F930E94301881EE1B
:1013000090E00E94441887E898E00E9460188FE8F7
:1013100098E06DEF70E045E550E020E030E003E05C
:10132000EE24FF240E9412170F91FF90EF90089572
:101330000E941E0B9093B2058093B1050E94420853
:101340000E94A4060E947A090E94A5070E9408181C
:10135000FFCFFC010FB6F8940F9220813181609588
:10136000709562237323718360830F900FBEC90150
:101370000895FC01808191810895BA010E94A90914
:101380000895CF93DF93EC010E94AA1106C08F81CC
:10139000988560E072E00E9453138A818823B9F730
:1013A000CE010E94310B0E94F314DF91CF9108957A
:1013B000CF92DF92EF92FF920F931F93CF93DF9321
:1013C000EC018B0185E0E82EF12CEC0EFD1E0E9455
:1013D000AA11EF81F88588819981802B912B9983BF
:1013E000888300E010E024C0D280C3808081918196
:1013F000BC016070AC0150702881398192FD05C03C
:1014000024233523232B31F40FC024233523241721
:10141000350751F470FF02C0042B152B68817981C8
:101420007260CF010E9453138D2D9C2D9C01F901F8
:10143000EE15FF05C9F600951095888199818023E6
:101440009123998388830E94F31488819981DF9185
:10145000CF911F910F91FF90EF90DF90CF90089563
:10146000BA010E94D8090895AF92BF92CF92DF923D
:10147000EF92FF920F931F93CF93DF936C017B0149
:10148000A42EB22E0E94AA11F60120813181C7013B
:1014900082239323BB2021F4892B09F05AC004C076
:1014A0008E159F0509F455C00115110559F4E90180
:1014B0001BC0C7018095909582239323F6019183E9
:1014C00080834AC0AA2019F060E071E002C060E0A9
:1014D00070E0B11074606E297F29C6010296A801E0
:1014E0000E949F16C0E0D0E00E94F314012B29F166
:1014F000882311F40E94E10C0E945B1291FD1BC035
:101500000FB6F8940F92F6018081918197012823FC
:101510003923BB2019F4232B19F50BC02E153F05D9
:1015200041F41EC0E094F094E822F922F601F18221
:10153000E0820F900FBEEC01D070CE01DF91CF9111
:101540001F910F91FF90EF90DF90CF90BF90AF90E1
:101550000895AA2009F0ADCFE90100E010E0C4CF62
:10156000AA2001F7E6CFAF92BF92CF92DF92EF921F
:10157000FF920F931F93CF93DF936C018B017A013E
:1015800059010E94AA11F601C081D181C601B8019A
:101590000E94D809C02BD12BC7018C239D238E1507
:1015A0009F0569F4970120953095F601808191811E
:1015B0008223932391838083AA24BB2410C0A11487
:1015C000B10451F0B7017560C6010296A5010E94F1
:1015D0009F16C0E0D0E003C0F601C081D1810E9417
:1015E000F314AB28F9F0882311F40E94E10C0E9457
:1015F0005B129C0191FD14C00FB6F8940F92F60196
:1016000020813181C701822393238E159F0531F4F8
:10161000E094F094E222F322F182E0820F900FBE78
:10162000E901D070CE01DF91CF911F910F91FF9012
:10163000EF90DF90CF90BF90AF900895CF93DF935E
:101640008BE090E00E94410BEC01009731F0FC012F
:1016500011921192CF010E94730BCE01DF91CF91B5
:1016600008950895109233021092320208952FE1E6
:1016700033E08091320290913302281B390BC9016B
:101680000895CF93DF93EC010E94AA118091340258
:1016900090913502892B31F487E392E090933502E3
:1016A000809334022091320230913302CE01820FB6
:1016B000931F43E08F31940770F42817390758F4CB
:1016C000C0913402D0913502C20FD31F90933302E0
:1016D0008093320202C0C0E0D0E00E94F314CE0139
:1016E000DF91CF910895FC019C012D5F3F4F328324
:1016F00021838FEF9FEF9483838336832583308705
:10170000278310820895FC01118610860895AC018C
:10171000FC01A181B281FB01B383A28314968D9158
:101720009C911597958384831496ED91FC91159760
:101730007383628315967C936E931497FB01518794
:101740004087FA0180818F5F80830895CF93DF9374
:101750009C01EB01488159818FEF4F3F580721F4DD
:10176000F901A781B0850DC0D90113961296ED91AC
:10177000FC911397808191814817590710F0DF0180
:10178000F5CF1296ED91FC911397FB83EA83D583F5
:10179000C483BD83AC831396DC93CE9312973987B1
:1017A0002887F90180818F5F8083DF91CF91089531
:1017B000CF93DF93DC011896CD91DC9119971296A7
:1017C0004D915C91139714968D919C911597FA0108
:1017D0009583848314962D913C911597F901538339
:1017E000428389819A818A179B0711F43A8329835E
:1017F00019961C921E92189788818150888388813F
:10180000DF91CF910895FC0191E1908322E2229330
:1018100083E3829362937293129280E8829312928E
:1018200082E0829383E0829384E0829385E08293D6
:1018300086E0829387E0829388E0829389E08293B6
:1018400080E18293929382E1829383E1829384E1A7
:10185000829385E1829386E1829387E1829388E196
:10186000829389E1829380E2829381E28293229340
:1018700083E282934293529386E2829387E2829339
:1018800088E2829389E2829380E3829381E3829368
:101890003197CF0108951BBC8CE78ABD8BE08EBDCC
:1018A00089B7806189BFA0915605B0915705CD9148
:1018B000CDBFDD91DEBFFF91EF91DF91CF91BF9161
:1018C000AF919F918F917F916F915F914F913F91D8
:1018D0002F911F910F91FF90EF90DF90CF90BF90CD
:1018E000AF909F908F907F906F905F904F903F90C0
:1018F0002F901F900F900FBE0F90089581E00895D4
:1019000008950F920FB6F8940F921F9211242F9200
:101910003F924F925F926F927F928F929F92AF927F
:10192000BF92CF92DF92EF92FF920F931F932F936C
:101930003F934F935F936F937F938F939F93AF9357
:10194000BF93CF93DF93EF93FF93A0915605B09190
:1019500057050DB60D920EB60D920E94C513882341
:1019600011F00E94CF11A0915605B0915705CD916D
:10197000CDBFDD91DEBFFF91EF91DF91CF91BF91A0
:10198000AF919F918F917F916F915F914F913F9117
:101990002F911F910F91FF90EF90DF90CF90BF900C
:1019A000AF909F908F907F906F905F904F903F90FF
:1019B0002F901F900F900FBE0F9008950E94810CE2
:1019C00018950F920FB6F8940F921F9211242F9230
:1019D0003F924F925F926F927F928F929F92AF92BF
:1019E000BF92CF92DF92EF92FF920F931F932F93AC
:1019F0003F934F935F936F937F938F939F93AF9397
:101A0000BF93CF93DF93EF93FF93A0915605B091CF
:101A100057050DB60D920EB60D920E94CF11A091F2
:101A20005605B0915705CD91CDBFDD91DEBFFF9139
:101A3000EF91DF91CF91BF91AF919F918F917F9166
:101A40006F915F914F913F912F911F910F91FF9057
:101A5000EF90DF90CF90BF90AF909F908F907F904E
:101A60006F905F904F903F902F901F900F900FBE00
:101A70000F900895FC010FB6F8940F92828D0F908D
:101A80000FBE0895FC010FB6F8940F92928D0F903F
:101A90000FBE838D891B0895FC01828D0895FC0182
:101AA000828D90E0882309F491E0892F0895FC014C
:101AB000928D20E0838D981709F421E0822F0895FC
:101AC0000E94310B0895FC01562FA72F248D22234D
:101AD000B9F086819781820F911D97838683248137
:101AE00035818217930720F08081918197838683C7
:101AF000448D66817781852F9A2F50E00E945F1F69
:101B000008950F931F93CF93DF93EC018A8D882361
:101B100041F00E811F81CE010E94630D1F830E8351
:101B200081E0DF91CF911F910F9108950F931F9343
:101B3000CF93DF93EC01042F1A8D4C8D4423C1F118
:101B40000023B1F48A819B8150E00E945F1F8C8D3D
:101B50002A813B81280F311D3B832A838C819D8103
:101B60002817390728F1888199819B838A8320C0AF
:101B70008E819F8150E00E945F1F8C8D90E04427F2
:101B80005527481B590B8E819F81840F951F9F837A
:101B90008E83288139818217930730F48C819D814F
:101BA000840F951F9F838E83023011F41111115001
:101BB0001F5F1A8F80E0DF91CF911F910F910895E1
:101BC000EF92FF920F931F93CF93DF93EC017A0173
:101BD0001A8D112311F480E01AC00D8D0E94630D3F
:101BE00011501A8F0F3F81F48885882379F0CE0138
:101BF00008960E948513882349F0E114F10431F01E
:101C000081E0F701808303C00F5F0D8F81E0DF91DA
:101C1000CF911F910F91FF90EF900895CF93DF9395
:101C2000FC01EB01928D838D981710F080E016C0B7
:101C3000868D9F5F928F8F3F71F48189882369F031
:101C4000CF0141960E948513882339F0209729F00F
:101C500081E0888303C08F5F868F81E0DF91CF9121
:101C60000895EF92FF921F93CF93DF93EC017A01D7
:101C70009A8D8B8D981720F0223011F080E01AC0D9
:101C80001E8DCE01422F0E94960D1F3F81F489893F
:101C9000882379F0CE0141960E948513882349F06C
:101CA000E114F10431F081E0F701808303C01F5F8C
:101CB0001E8F81E0DF91CF911F91FF90EF900895EB
:101CC000EF92FF921F93CF93DF93EC010FB6F8943E
:101CD0000F921E8D91E1E92EF12CEC0EFD1E0BC032
:101CE0008989882351F0C7010E948513882311F048
:101CF0000E945612115011169CF38FEF8E8F0F9089
:101D00000FBE0FB6F8940F921D8D88E0E82EF12CCF
:101D1000EC0EFD1E0BC08885882351F0C7010E9480
:101D20008513882311F00E945612115011169CF34E
:101D30008FEF8D8F0F900FBEDF91CF911F91FF908E
:101D4000EF9008958F929F92AF92BF92CF92DF92C1
:101D5000EF92FF920F931F93DF93CF9300D000D0A9
:101D60000F92CDB7DEB77C015B015D834C8341E10F
:101D7000C42ED12CC80ED91E20E08E010F5F1F4F3C
:101D800034E0832E912C8C0E9D1E01C021E00FB6F5
:101D9000F8940F92F701828D8823B9F0068117819C
:101DA000C701B5010E94630DF7011783068381897E
:101DB000882339F0C6010E948513882311F00E9400
:101DC000E10C0F900FBE81E054C08C819D81892B66
:101DD00021F40F900FBE80E04CC0222319F4C801FB
:101DE0000E9419120F900FBE0E94AA110FB6F8940C
:101DF0000F92F701858D8F3F09F4158EF701868DBF
:101E00008F3F09F4168E0F900FBEC801B4010E94D7
:101E100024128823F9F40FB6F8940F92F701828DFB
:101E20000F900FBE882381F46C817D81C6010E94D2
:101E3000FA16C7010E94600E0E94F314882309F06D
:101E4000A5CF0E94E10CA2CFC7010E94600E0E94A4
:101E5000F3149CCFC7010E94600E0E94F3140FB6CA
:101E6000F8940F92F701828D0F900FBE882309F02E
:101E70008DCF0F900F900F900F900F90CF91DF911B
:101E80001F910F91FF90EF90DF90CF90BF90AF9098
:101E90009F908F900895AF92BF92CF92DF92EF9272
:101EA000FF920F931F93DF93CF9300D000D00F9238
:101EB000CDB7DEB78C017D836C8361E1E62EF12C1A
:101EC000E80EF91E20E06E010894C11CD11C54E0FC
:101ED000A52EB12CAC0EBD1E01C021E00FB6F894AA
:101EE0000F92F801828D882389F08150828F80853E
:101EF000882341F0C80108960E948513882311F0B9
:101F00000E94E10C0F900FBE81E054C08C819D8136
:101F1000892B21F40F900FBE80E04CC0222319F4CE
:101F2000C6010E9419120F900FBE0E94AA110FB68F
:101F3000F8940F92F801858D8F3F09F4158EF80102
:101F4000868D8F3F09F4168E0F900FBEC601B50126
:101F50000E9424128823F9F40FB6F8940F92F80126
:101F6000828D0F900FBE882381F46C817D81C70123
:101F70000E94FA16C8010E94600E0E94F314882382
:101F800009F0ABCF0E94E10CA8CFC8010E94600EFF
:101F90000E94F314A2CFC8010E94600E0E94F314A5
:101FA0000FB6F8940F92F801828D0F900FBE882320
:101FB00009F093CF0F900F900F900F900F90CF914B
:101FC000DF911F910F91FF90EF90DF90CF90BF9026
:101FD000AF9008956F927F928F929F92AF92BF922F
:101FE000CF92DF92FF920F931F93DF93CF9300D096
:101FF00000D00F92CDB7DEB78C015B015D834C83BF
:10200000E1E1CE2ED12CC80ED91E20E04E0108945D
:10201000811C911C74E0672E712C6C0E7D1E01C01A
:1020200021E00FB6F8940F92F801F28CFF20B1F086
:10203000C801B5010E94630DFA94F801F28E808503
:10204000882341F0C80108960E948513882311F067
:102050000E94E10C0F900FBE81E054C08C819D81E5
:10206000892B21F40F900FBE80E04CC0222319F47D
:10207000C4010E9419120F900FBE0E94AA110FB640
:10208000F8940F92F801858D8F3F09F4158EF801B1
:10209000868D8F3F09F4168E0F900FBEC401B301D9
:1020A0000E9424128823F9F40FB6F8940F92F801D5
:1020B000828D0F900FBE882381F46C817D81C601D3
:1020C0000E94FA16C8010E94600E0E94F314882331
:1020D00009F0A6CF0E94E10CA3CFC8010E94600EB8
:1020E0000E94F3149DCFC8010E94600E0E94F31459
:1020F0000FB6F8940F92F801828D0F900FBE8823CF
:1021000009F08ECF0F900F900F900F900F90CF91FE
:10211000DF911F910F91FF90DF90CF90BF90AF9014
:102120009F908F907F906F9008956F927F929F9273
:10213000AF92BF92CF92DF92EF92FF920F931F93D5
:10214000DF93CF9300D000D00F92CDB7DEB78C01D4
:102150006B015D834C83922EA8E0EA2EF12CE80EF1
:10216000F91E20E05E010894A11CB11CF4E06F2E62
:10217000712C6C0E7D1E01C021E00FB6F8940F92F9
:10218000F801928D838D981718F0F2E09F16C9F42C
:10219000C801B601492D0E94960D982FF80181893A
:1021A000882339F0C80141960E948513882329F0BD
:1021B00002C0992311F00E94E10C0F900FBE81E044
:1021C0004CC08C819D81892B19F40F900FBE44C0A7
:1021D000222319F4C5010E9419120F900FBE0E940C
:1021E000AA110FB6F8940F92F801858D8F3F09F46C
:1021F000158EF801868D8F3F09F4168E0F900FBE55
:10220000C501B3010E942412882309F50FB6F89482
:102210000F92F801928D0F900FBEF801838D9817E1
:1022200081F46C817D81C7010E94FA16C8010E9469
:10223000600E0E94F314882309F09ECF0E94E10CE7
:102240009BCFC8010E94600E0E94F31495CFC80175
:102250000E94600E0E94F31480E00F900F900F9088
:102260000F900F90CF91DF911F910F91FF90EF9002
:10227000DF90CF90BF90AF909F907F906F90089528
:10228000CF93DF93EC010FB6F8940F92EC8D2B8D6A
:10229000E29FC001112448815981840F951F9D83BD
:1022A0008C831A8E5B834A8330E021503040F0E00B
:1022B0002E9FC0012F9F900D3E9F900D1124480F1F
:1022C000591F5F834E838FEF8D8F8E8F662361F44E
:1022D0008885882389F0CE0108960E94851388237B
:1022E00059F00E94E10C08C0CE0108960E94730BC1
:1022F000CE0141960E94730B0F900FBE81E0DF91DB
:10230000CF9108950F931F93CF93DF93082F162F2C
:10231000662319F480E090E003C0689FC001112497
:102320004F960E94410BEC01009771F0112319F4B4
:102330009983888303C04F96998388830B8F1C8F62
:10234000CE0161E00E944011CE01DF91CF911F913B
:102350000F910895809158058F5F809358050895D7
:102360000FB6F8940F9220915B0530915C050F90A9
:102370000FBEC901089520915B0530915C05C9012C
:102380000895809161050895009721F48091560584
:10239000909157059C01275E3F4FC9010895809198
:1023A0005805882321F081E080935A050895109202
:1023B0005A052091590599E001C02150299FD0016B
:1023C0001124AA59BA4F8C918823B9F31196ED9133
:1023D000FC9112970280F381E02D1296FC93EE930C
:1023E0001197CD010396E817F90731F482819381A3
:1023F00012969C938E9311971196ED91FC911297E2
:1024000086819781909357058093560520935905AF
:102410000895FC010FB6F8940F9280915F058083B8
:1024200080915B0590915C05928381830F900FBE34
:102430000895FC0180915F05808380915B059091F8
:102440005C05928381830895FC01DB010FB6F8944B
:102450000F9240915B0550915C05218132819091F2
:102460005F058081981719F042175307D8F4CA0105
:10247000821B930B9C018D919C9111972817390712
:1024800078F4821B930B8D939C9380915F058083DE
:1024900080915B0590915C059283818380E003C00D
:1024A0001D921C9281E00F900FBE089581E08093F1
:1024B0005A050895FFCFE0915605F09157058485A0
:1024C0009585A0915605B0915705E0915605F0917C
:1024D0005705468924E030E0241B31091D963C93C2
:1024E0002E931C970895009711F0FC0104C0E09111
:1024F0005605F09157050FB6F8940F9285A18230DA
:1025000011F080E002C015A281E00F900FBE089587
:10251000EF92FF920F931F93CF93DF93EC017B0118
:102520002DA182E08DA389A19AA1ABA1BCA10196A6
:10253000A11DB11D89A39AA3ABA3BCA3213089F52A
:10254000809158058823A9F48E010E5F1F4FC801A2
:102550000E94D80B9E8980915905891710F4909399
:10256000590589E0989FC00111248A599A4FB801F2
:1025700005C0BE01645F7F4F80EA95E00E94870B33
:10258000E0915605F09157059E898689891748F490
:10259000E114F10419F081E0F701808381E0809378
:1025A0005A05DF91CF911F910F91FF90EF90089501
:1025B000EF92FF920F931F93CF93DF93EC01F801FB
:1025C0000115110541F089A19AA1ABA1BCA180839D
:1025D0009183A283B3833DA182E08DA3223099F041
:1025E000233018F4213019F505C02330E1F02430F0
:1025F000F1F415C089A19AA1ABA1BCA1842B952BA4
:10260000A62BB72B07C089A19AA1ABA1BCA10196AB
:10261000A11DB11D89A39AA3ABA3BCA308C03230EE
:1026200011F480E039C049A35AA36BA37CA33130D5
:1026300091F5809158058823A9F48E010E5F1F4FF4
:10264000C8010E94D80B9E8980915905891710F402
:102650009093590589E0989FC00111248A599A4F97
:10266000B80105C0BE01645F7F4F80EA95E00E941B
:10267000870BE0915605F09157059E898689891749
:1026800050F4E114F10419F081E0F701808381E056
:1026900080935A0501C081E0DF91CF911F910F9186
:1026A000FF90EF9008950F931F93CF93DF93FC015A
:1026B000706871836083C681D7810E94D80B8E01B8
:1026C0000E5F1F4FC8010E94D80B9E89809159054B
:1026D000891710F49093590589E0989FC00111243F
:1026E0008A599A4FB8010E94870BE0915605F091E4
:1026F00057059E898689891718F481E080935A05C9
:10270000DF91CF911F910F9108950F931F93CF9356
:10271000DF93DC011596ED91FC911697C681D78168
:102720008E01045F1F4FC8010E94D80B809158058D
:102730008823A1F48E010E5F1F4FC8010E94D80BA1
:102740009E8980915905891710F49093590589E065
:10275000989FC00111248A599A4F02C080EA95E0DF
:10276000B8010E94870BE0915605F09157059E89AC
:102770008689891710F080E003C081E080935A05B4
:10278000DF91CF911F910F910895CF92DF92EF9239
:10279000FF920F931F93CF93DF9380915805882367
:1027A00009F0A1C000915B0510915C050F5F1F4F00
:1027B00010935C0500935B050115110579F52091D7
:1027C0009C0530919D0580919E0590919F05909369
:1027D0009D0580939C0530939F0520939E058091D5
:1027E0005F058F5F80935F05E0919C05F0919D05EB
:1027F0008081882319F48FEF9FEF0CC0E0919C0536
:10280000F0919D050580F681E02D0680F781E02D91
:102810008281938190935E0580935D0580915D0533
:1028200090915E050817190708F44BC0DD2499E064
:10283000C92EE0919C05F0919D058081882319F4B3
:102840008FEF9FEF0EC0E0919C05F0919D050580F4
:10285000F681E02DC681D7818A819B8108171907EF
:1028600028F490935E0580935D052CC082E0E82EED
:10287000F12CEC0EFD1EC7010E94D80B8C899D899E
:10288000892B21F0CE010C960E94D80B9E89809155
:102890005905891710F4909359059C9DC001112486
:1028A0008A599A4FB7010E94870BE0915605F09123
:1028B00057059E898689981708F4BBCFDD24D394E9
:1028C000B8CFDD24E0915605F0915705E68989E0FF
:1028D000E89FF0011124EA59FA4F8081823048F0D4
:1028E000DD24D39406C0809160058F5F80936005DE
:1028F000DD2480915A05882311F0DD24D3948D2D99
:10290000DF91CF911F910F91FF90EF90DF90CF90CB
:1029100008950F931F93CF93DF93EC01F8010FB647
:10292000F8940F920115110541F089A19AA1ABA16C
:10293000BCA180839183A283B3833DA182E08DA358
:10294000223099F0233018F4213019F505C02330D6
:10295000E1F02430F1F415C089A19AA1ABA1BCA18A
:10296000842B952BA62BB72B07C089A19AA1ABA1CD
:10297000BCA10196A11DB11D89A39AA3ABA3BCA3C1
:1029800008C0323011F480E027C049A35AA36BA3DA
:102990007CA3313001F58E010E5F1F4FC8010E94EC
:1029A000D80B9E8980915905891710F49093590589
:1029B00089E0989FC00111248A599A4FB8010E945A
:1029C000870BE0915605F09157059E8986898917F6
:1029D00010F40E94E10C81E00F900FBEDF91CF91C7
:1029E0001F910F910895EF92FF920F931F93CF9332
:1029F000DF930FB6F8940F92809158058150809321
:102A0000580580915805882309F06CC080916105B4
:102A1000882309F467C0C0E0D0E029E0E22EFF245B
:102A2000F39429C0E091A505F091A605C681D78150
:102A3000CE010C960E94D80B8E010E5F1F4FC8016D
:102A40000E94D80B9E8980915905891710F49093A4
:102A500059059E9DC00111248A599A4FB8010E94C0
:102A6000870BE0915605F09157059E898689981746
:102A700010F0F0925A058091A005882399F6CD2B8D
:102A8000D1F0E0919C05F0919D058081882319F497
:102A90008FEF9FEF0CC0E0919C05F0919D050580A4
:102AA000F681E02D0680F781E02D8281938190935D
:102AB0005E0580935D0510916005112359F001E0DA
:102AC0000E94C513882311F000935A051150C1F7D5
:102AD0001092600580915A05882321F00E94E10C34
:102AE00081E001C080E00F900FBEDF91CF911F9178
:102AF0000F91FF90EF9008950F931F93CF93DF9363
:102B0000EC0100915B0510915C0580915605909158
:102B1000570502960E94D80BC00FD11FE0915605B1
:102B2000F0915705D383C283C017D10768F4809111
:102B30009E0590919F0560915605709157056E5FB7
:102B40007F4F0E94A60B17C080919C0590919D0518
:102B500060915605709157056E5F7F4F0E94A60BDE
:102B600080915D0590915E05C817D90720F4D09338
:102B70005E05C0935D05DF91CF911F910F91089580
:102B80006F927F928F929F92AF92BF92CF92DF927D
:102B9000EF92FF920F931F93CF93DF935B016C0132
:102BA00039014A01E8010FB6F8940F92E0915605F9
:102BB000F091570585A1823019F1E0915605F09109
:102BC000570581A192A1A3A1B4A1A094B094C094EF
:102BD000D0948A219B21AC21BD2181A392A3A3A3E0
:102BE000B4A3E0915605F091570581E085A3E11467
:102BF000F10431F0C70161E00E947C150E94E10CF4
:102C00000F900FBE0FB6F8940F92209761F0E091ED
:102C10005605F091570581A192A1A3A1B4A1888383
:102C20009983AA83BB83E0915605F091570585A14E
:102C3000823011F080E015C0E0915605F091570503
:102C400081A192A1A3A1B4A1609470948094909466
:102C500086219721A821B92181A392A3A3A3B4A37C
:102C600081E0E0915605F091570515A20F900FBE37
:102C7000DF91CF911F910F91FF90EF90DF90CF9058
:102C8000BF90AF909F908F907F906F9008951F930B
:102C9000182F0FB6F8940F92E0915605F091570552
:102CA00081A192A1A3A1B4A10097A105B10579F4D6
:102CB000E0915605F091570581E085A361157105F6
:102CC00031F0CB0161E00E947C150E94E10C0F9075
:102CD0000FBE0FB6F8940F92E0915605F09157058C
:102CE00021A132A143A154A121153105410551056E
:102CF000D9F0112349F0E0915605F091570511A242
:102D000012A213A214A210C0E0915605F09157052B
:102D1000215030404040504021A332A343A354A34C
:102D20002F5F3F4F4F4F5F4FE0915605F091570592
:102D300015A20F900FBEB901CA011F9108950F93FC
:102D40001F938A01E0915605F091570570687587C9
:102D500064876091560570915705645F7F4F0E94AC
:102D6000870BC80161E00E947C151F910F910895A7
:102D70009C01009769F0809158058F5F80935805FA
:102D8000C90160E00E947C150E94F314882311F4AD
:102D90000E94E10C0895FC01809158058F5F80939B
:102DA000580540915B0550915C0520813181620F8F
:102DB000731F4217530728F46217730728F080E047
:102DC00008C06217730720F080E04617570708F421
:102DD00081E071836083882331F0CB01841B950BE4
:102DE00060E00E947C150E94F314882311F40E9475
:102DF000E10C08950F931F938B016091560570911C
:102E00005705645F7F4F0E94A60BC80161E00E94D6
:102E10007C151F910F910895F894109262050E94FD
:102E2000800C08954F925F926F927F928F929F9243
:102E3000AF92BF92CF92DF92EF92FF920F931F93C8
:102E4000CF93DF932C015B016A0139014701CA016D
:102E50000E94410B7C01009781F086E290E00E9485
:102E6000410BEC01009731F0F88EEF8AA114B10408
:102E700031F416C0C7010E94310B8FEFB8C0F501C5
:102E8000DC0190E0808159968C935997808188234A
:102E900029F09F5F319611969830A1F718A201C0D2
:102EA000198E043008F003E00E8B42E0A42EB12C02
:102EB000AC0EBD1EC5010E94830BCE010C960E9474
:102EC000830BD987C88784E090E0801B91099D8798
:102ED0008C87DB8BCA8B19A21AA21BA21CA21DA273
:102EE0000894C108D108C7018C0D9D1DB201A30132
:102EF0000E94030C998388838114910419F0F401D2
:102F0000D183C0830FB6F8940F92809161058F5FD3
:102F1000809361058091560590915705892B89F51D
:102F2000D0935705C0935605809161058130C9F54E
:102F300086E695E00E94730B8FE695E00E94730B86
:102F400088E795E00E94730B81E895E00E94730B7F
:102F50003AE8E32E35E0F32EC7010E94730B03E934
:102F600015E0C8010E94730B80EA95E00E94730B84
:102F7000F0929D05E0929C0510939F0500939E059D
:102F800010C080916205882361F4E0915605F091AC
:102F9000570596898E89891720F0D0935705C093DD
:102FA0005605809165058F5F809365059E898091A8
:102FB0005905891710F49093590589E0989FC0012D
:102FC00011248A599A4FB5010E94870B0F900FBEAA
:102FD00080916205882351F0E0915605F0915705E4
:102FE00096898E89981710F40E94E10C81E0DF9198
:102FF000CF911F910F91FF90EF90DF90CF90BF90F6
:10300000AF909F908F907F906F905F904F900895BA
:10301000EF92FF920F938AE592E160E071E045E55F
:1030200050E020E030E000E0E3E6EE2EE5E0FE2EAA
:103030000E941217813081F4F8948FEF9FEF9093E4
:103040005E0580935D0581E08093620510925C05CA
:1030500010925B050E944B0C0F91FF90EF9008952A
:1030600010BC83E389B988ED8AB986E880BD8FB743
:1030700080688FBF08958BB1829586958170089581
:103080005D9BFECF8CB908952091AD05FC01E20F48
:10309000F11DE081EE2339F41092AD051092AA05DE
:1030A0001092A9050895222321F49093AA058093F4
:1030B000A9055D9BFECFECB92F5F2093AD05089568
:1030C0009093AC058093AB0508951F920F920FB6B5
:1030D0000F9211242F933F934F935F936F937F939E
:1030E0008F939F93AF93BF93EF93FF93E091AB05C3
:1030F000F091AC05309711F08CB10995FF91EF91EB
:10310000BF91AF919F918F917F916F915F914F91FF
:103110003F912F910F900FBE0F901F9018951F9207
:103120000F920FB60F9211240F900FBE0F901F90A9
:1031300018951F920F920FB60F9211242F933F9361
:103140004F935F936F937F938F939F93AF93BF93AF
:10315000EF93FF938091A9059091AA050E944418CE
:10316000FF91EF91BF91AF919F918F917F916F915F
:103170005F914F913F912F910F900FBE0F901F9035
:103180001895E82FF0E0EE0FFF1FE85DFD4F01906E
:10319000F081E02D60830895E82FF0E0EE0FFF1F2F
:1031A000DF01A85DBD4F0D90BC91A02D1C92E05E8B
:1031B000FD4F0190F081E02D8FEF80830895E82F7F
:1031C000F0E0EE0FFF1FE85DFD4F0190F081E02D74
:1031D00080810895E82FF0E0442391F0EE0FFF1F67
:1031E000E85DFD4F0190F081E02D208181E090E0CD
:1031F00002C0880F991F6A95E2F7282B2083089553
:10320000EE0FFF1FE85DFD4F0190F081E02D208162
:1032100081E090E002C0880F991F6A95E2F78095DF
:10322000822380830895A82FB0E0AA0FBB1FFD0161
:10323000E85DFD4F0190F081E02D908121E030E0CC
:1032400002C0220F331F6A95E2F7822F80958923EF
:103250008083A05EBD4FED91FC918081822B8083A5
:103260000895E82FF0E0EE0FFF1FE85DFD4F01909D
:10327000F081E02D808190E002C0959587956A9558
:10328000E2F781700895E82FF0E0EE0FFF1FE05E97
:10329000FD4F0190F081E02D8FEF80830895E82F9E
:1032A000F0E0EE0FFF1FE05EFD4F0190F081E02D9A
:1032B00010820895E82FF0E0EE0FFF1FE05EFD4F53
:1032C0000190F081E02D8081809580830895E82F22
:1032D000F0E0EE0FFF1FE05EFD4F0190F081E02D6A
:1032E00060830895E82FF0E0EE0FFF1FE05EFD4FD2
:1032F0000190F081E02D80810895E82FF0E0EE0F3D
:10330000FF1FE05EFD4F0190F081E02D208181E004
:1033100090E002C0880F991F6A95E2F7282B20835E
:103320000895E82FF0E0EE0FFF1FE05EFD4F0190E3
:10333000F081E02D208181E090E002C0880F991F8C
:103340006A95E2F78095822380830895E82FF0E064
:10335000EE0FFF1FE05EFD4F0190F081E02D208118
:1033600081E090E002C0880F991F6A95E2F7282754
:1033700020830895E82FF0E0442391F0EE0FFF1F23
:10338000E05EFD4F0190F081E02D208181E090E032
:1033900002C0880F991F6A95E2F7282B20830895B1
:1033A000EE0FFF1FE05EFD4F0190F081E02D2081C8
:1033B00081E090E002C0880F991F6A95E2F780953E
:1033C000822380830895E82FF0E0EE0FFF1FE05E78
:1033D000FD4F0190F081E02D808190E002C0959535
:1033E00087956A95E2F781700895E82FF0E0EE0F77
:1033F000FF1FE85EFD4F0190F081E02D8081089570
:10340000E82FF0E0EE0FFF1FE85EFD4F0190F08126
:10341000E02D808190E002C0959587956A95E2F74E
:10342000817008953D983E9A3F98379A0895FC011F
:1034300087B1807E87B997B180818F71892B87B9D9
:1034400086B1887F86B996B180818295869587708E
:10345000892B86B980B78F7180BF90B7818186959F
:103460008770892B80BF818180FF02C0359A01C09F
:10347000359884FF04C0339A8FB7806803C03398AF
:103480008FB78F778FBF0895369A0895FC01369ACB
:10349000349BFECF349A84B195B191838083089593
:1034A0009093AF058093AE0508951F920F920FB6CB
:1034B0000F9211242F933F934F935F936F937F93BA
:1034C0008F939F93AF93BF93EF93FF93E091AE05DC
:1034D000F091AF05309719F084B195B10995FF913E
:1034E000EF91BF91AF919F918F917F916F915F917C
:1034F0004F913F912F910F900FBE0F901F901895F5
:10350000DF92EF92FF920F931F93CF93DF93E82EFA
:10351000FF2400E010E0282F70E030E040E0DD24E0
:10352000C62FD0E021970BC0622F832F942FA801C4
:1035300097010E94CC1E262F382F492FD3948D2D12
:1035400090E08C179D0784F3622F832F942FDF91D7
:10355000CF911F910F91FF90EF90DF900895089504
:103560000F931F9382E067E040E00E94EA1882E038
:1035700066E040E00E94EA1882E065E040E00E94D8
:10358000EA1882E064E040E00E94EA1882E062E02B
:103590000E94911982E061E00E947D1912E0812F62
:1035A0008A95F1F782E060E00E947D19812F8A956B
:1035B000F1F782E00E94F519082F0295007F82E062
:1035C00060E00E9491198AE18A95F1F782E060E05B
:1035D0000E947D191A95F1F782E00E94F519082BD7
:1035E00082E060E00E94911982E067E041E00E9481
:1035F000EA1882E066E041E00E94EA1882E065E0B5
:1036000041E00E94EA1882E064E041E00E94EA188A
:10361000802F8F771F910F9108950F931F93CF9352
:10362000DF9382E062E00E94911982E061E00E94F3
:10363000911912E0812F8A95F1F782E060E00E94F3
:103640007D191A95F1F7C0E0D0E002E010E0CE015C
:103650008C5F682FA8010C2E02C0559547950A94DF
:10366000E2F7417082E00E94BA192196C430D10578
:1036700071F782E060E00E9491198AE18A95F1F782
:1036800082E060E00E947D1982E08A95F1F7C0E057
:10369000D0E002E010E0CE018C5F682FA8010C2E74
:1036A00002C0559547950A94E2F7417082E00E9466
:1036B000BA192196C430D10571F782E060E00E940A
:1036C00091198AE18A95F1F782E060E00E947D1904
:1036D00082E08A95F1F7C0E0D0E008E010E0CE018A
:1036E0008C5F682FA8010C2E02C0559547950A944F
:1036F000E2F7417082E00E94BA192196C430D105E8
:1037000071F782E060E00E9491198AE18A95F1F7F1
:10371000DF91CF911F910F910895EF92FF920F9338
:103720001F93CF93DF93082F82E062E00E949119EC
:1037300082E061E00E94911912E0812F8A95F1F7F1
:1037400082E060E00E947D19812F8A95F1F7E02EDA
:10375000FF24A70134E0559547953A95E1F741706C
:1037600082E064E00E94BA19A70125E055954795CB
:103770002A95E1F7417082E065E00E94BA19A7013D
:1037800096E0559547959A95E1F7417082E066E09D
:103790000E94BA19A701440F452F441F550B4170D1
:1037A00082E067E00E94BA1982E060E00E9491190D
:1037B0008AE18A95F1F782E060E00E947D191A950E
:1037C000F1F7C0E0D0E0CE018C5F682FA7010C2E8E
:1037D00002C0559547950A94E2F7417082E00E9435
:1037E000BA192196C430D10571F782E060E00E94D9
:1037F0009119DF91CF911F910F91FF90EF90089554
:103800008CE00E948D1B85E88A95F1F7089588E089
:103810000E948D1B84EF91E028EC30E0F901319794
:10382000F1F70197D9F708950F931F9381E00E9454
:103830008D1B00EA1FE0C8010197F1F782E00E94AA
:103840008D1BC8010197F1F71F910F91089590E02A
:10385000029646E0880F991F4A95E1F7860F0E946D
:103860008D1B85E88A95F1F708951F9382E067E044
:1038700041E00E94EA1882E066E041E00E94EA1816
:1038800082E065E041E00E94EA1882E064E041E005
:103890000E94EA1882E060E041E00E94EA1882E0BB
:1038A00061E041E00E94EA1882E062E041E00E94AB
:1038B000EA1884EF91E028EC30E0F9013197F1F754
:1038C0000197D9F70E940D1B15E8812F8A95F1F712
:1038D0008CE00E948D1B1A95F1F781E00E948D1BF0
:1038E00080EA9FE00197F1F71F910895EF92FF9210
:1038F0000F931F93CF93DF93082F82E062E00E9423
:103900007D1982E061E00E94911912E0812F8A9571
:10391000F1F782E060E00E947D19812F8A95F1F72E
:10392000E02EFF24A701F4E055954795FA95E1F7BD
:10393000417082E064E00E94BA19A701E5E0559564
:103940004795EA95E1F7417082E065E00E94BA1977
:10395000A70176E0559547957A95E1F7417082E0A9
:1039600066E00E94BA19A701440F452F441F550B6A
:10397000417082E067E00E94BA1982E060E00E9434
:1039800091198AE18A95F1F782E060E00E947D1941
:103990001A95F1F7C0E0D0E0CE018C5F682FA70147
:1039A0000C2E02C0559547950A94E2F7417082E0CB
:1039B0000E94BA192196C430D10571F782E060E007
:1039C0000E949119DF91CF911F910F91FF90EF907D
:1039D00008950E94761C85E88A95F1F70895AF92C4
:1039E000BF92CF92DF92EF92FF920F931F93DF93DC
:1039F000CF93CDB7DEB72A970FB6F894DEBF0FBED0
:103A0000CDBF7B018C01611571058105910521F404
:103A100080E30E94E91C0DC097FF0BC08DE20E945D
:103A2000E91C10950095F094E094E11CF11C011D37
:103A3000111D5E010894A11CB11CDD2423C0C80126
:103A4000B7012AE030E040E050E00E94EB1EF501B3
:103A500061935F01D394FBE0DF1641F411E0ED2C9C
:103A6000FF246E010894C11CD11C1CC0C801B70101
:103A70002AE030E040E050E00E94EB1EC901DA018C
:103A80007C018D01E114F10401051105C1F6E6CFB9
:103A9000F701E81BF90BEC0DFD1D8081805D0E9494
:103AA000E91C1F5F812F90E0E816F9068CF72A9633
:103AB0000FB6F894DEBF0FBECDBFCF91DF911F913F
:103AC0000F91FF90EF90DF90CF90BF90AF9008954F
:103AD0002F923F924F925F926F927F928F929F921E
:103AE000AF92BF92CF92DF92EF92FF920F931F930C
:103AF000CF93DF931B012C01142F0E94A7033B01DE
:103B00004C0100E0AAE0AA2EB12CC12CD12CC12F6F
:103B1000D0E021970BC0C601B5012AE030E040E0BB
:103B200050E00E94CC1E5B016C010F5F802F90E083
:103B30008C179D0784F3C401B3010E94EF1C8EE231
:103B40000E94E91CC401B3010E9449039B01AC011E
:103B5000C201B1010E94C1017B018C01C601B50106
:103B60000E9449039B01AC01C801B7010E941F02DA
:103B70000E94A7036F770E94EF1CDF91CF911F91E6
:103B80000F91FF90EF90DF90CF90BF90AF909F90FC
:103B90008F907F906F905F904F903F902F900895FF
:103BA0001F93CF93DF93EC0110E003C00E94E91C48
:103BB0001F5FFE01E10FF11D80818823B9F7DF91BE
:103BC000CF911F9108951F9382E060E00E94C11879
:103BD00084EF91E028EC30E0F9013197F1F701979B
:103BE000D9F782E062E00E94911982E061E00E94D0
:103BF0007D1912E0812F8A95F1F782E060E00E9442
:103C00007D191A95F1F782E00E94F519182F82E0CC
:103C100060E00E94911982E061E00E94C118812F4A
:103C20008F771F9108950F931F93082F82E062E012
:103C30000E94911982E061E00E94911912E0812FA7
:103C40008A95F1F782E060E00E947D191A95F1F7FC
:103C500082E0602F0E94671982E060E00E94911963
:103C60001F910F9108950F931F93082F82E062E038
:103C70000E947D1982E061E00E94911912E0812F7B
:103C80008A95F1F782E060E00E947D191A95F1F7BC
:103C900082E0602F0E94671982E060E00E94911923
:103CA0001F910F910895DC01EFE0F2E08C91808389
:103CB00013968C911397838316968C91169786830F
:103CC0001196319682E0E231F80781F708950F935B
:103CD0001F9300E081E0602F0E94911981E064E071
:103CE0000E94001A882311F414E00FC081E065E0FF
:103CF0000E94001A882311F415E007C081E066E0F5
:103D00000E94001A8823A9F416E081E0612F0E9426
:103D1000001A8823D1F3812F90E00497FC01EE0F65
:103D2000FF1FE80FF91FE00FF11DE15FFD4F8081DC
:103D300008C081E0602F0E947D190F5F033051F6AB
:103D40008FEF1F910F91089581E060E041E00E94A4
:103D5000EA1881E060E00E947D1981E061E041E0C5
:103D60000E94EA1881E061E00E947D1981E062E032
:103D700041E00E94EA1881E062E00E947D1981E042
:103D800064E00E94131981E065E00E94131981E04C
:103D900066E00E9413190895629FD001739FF0019D
:103DA000829FE00DF11D649FE00DF11D929FF00DCB
:103DB000839FF00D749FF00D659FF00D9927729F02
:103DC000B00DE11DF91F639FB00DE11DF91FBD018D
:103DD000CF011124089597FB092E05260ED057FD1B
:103DE00004D014D00AD0001C38F45095409530957A
:103DF00021953F4F4F4F5F4F0895F6F7909580956F
:103E0000709561957F4F8F4F9F4F0895A1E21A2EB5
:103E1000AA1BBB1BFD010DC0AA1FBB1FEE1FFF1F6E
:103E2000A217B307E407F50720F0A21BB30BE40BBE
:103E3000F50B661F771F881F991F1A9469F7609505
:103E40007095809590959B01AC01BD01CF010895BF
:103E50002F923F924F925F926F927F928F929F929A
:103E6000AF92BF92CF92DF92EF92FF920F931F9388
:103E7000CF93DF93CDB7DEB7CA1BDB0B0FB6F89439
:103E8000DEBF0FBECDBF09942A88398848885F8479
:103E90006E847D848C849B84AA84B984C884DF80EA
:103EA000EE80FD800C811B81AA81B981CE0FD11DCE
:103EB0000FB6F894DEBF0FBECDBFED010895FB0134
:103EC000DC0102C001900D9241505040D8F7089596
:043ED000F894FFCF94
:103ED400416C61726D00433A20202020543A202026
:103EE400202041533A2000202054433A43202020EC
:103EF4004153543A54202000202020202020543ABA
:103F040020202020202020200020204F4B3A4F202A
:103F1400202020434E3A4320200020212121414CDF
:103F240041524D494E4721212120002020202020AC
:103F34002041533A53202020202020004C43445F4A
:103F440064697370005570646174655F54656D7065
:103F5400005374617274696E67207C7C20207C7CC1
:103F640020526563656976696E673A200055490099
:103F740049444C450000000000000000000001021C
:103F840002030303030404040404040404050505F0
:103F940005050505050505050505050505060606CA
:103FA40006060606060606060606060606060606AD
:103FB400060606060606060606060606060707079A
:103FC400070707070707070707070707070707077D
:103FD400070707070707070707070707070707076D
:103FE400070707070707070707070707070707075D
:103FF400070707070707070707070707070808084A
:10400400080808080808080808080808080808082C
:10401400080808080808080808080808080808081C
:10402400080808080808080808080808080808080C
:1040340008080808080808080808080808080808FC
:1040440008080808080808080808080808080808EC
:1040540008080808080808080808080808080808DC
:1040640008080808080808080808080808080808CC
:10407400080808080808080808080808086401016E
:10408400020304050607080939003600330030002E
:104094003B003800350032003A003700340031006C
:00000001FF
